{
  "_format": "hh-sol-artifact-1",
  "contractName": "MyNFT",
  "sourceName": "contracts/MyNFT.sol",
  "abi": [
    {
      "inputs": [],
      "stateMutability": "nonpayable",
      "type": "constructor"
    },
    {
      "anonymous": false,
      "inputs": [
        {
          "indexed": true,
          "internalType": "address",
          "name": "owner",
          "type": "address"
        },
        {
          "indexed": true,
          "internalType": "address",
          "name": "approved",
          "type": "address"
        },
        {
          "indexed": true,
          "internalType": "uint256",
          "name": "tokenId",
          "type": "uint256"
        }
      ],
      "name": "Approval",
      "type": "event"
    },
    {
      "anonymous": false,
      "inputs": [
        {
          "indexed": true,
          "internalType": "address",
          "name": "owner",
          "type": "address"
        },
        {
          "indexed": true,
          "internalType": "address",
          "name": "operator",
          "type": "address"
        },
        {
          "indexed": false,
          "internalType": "bool",
          "name": "approved",
          "type": "bool"
        }
      ],
      "name": "ApprovalForAll",
      "type": "event"
    },
    {
      "anonymous": false,
      "inputs": [
        {
          "indexed": false,
          "internalType": "uint256",
          "name": "_fromTokenId",
          "type": "uint256"
        },
        {
          "indexed": false,
          "internalType": "uint256",
          "name": "_toTokenId",
          "type": "uint256"
        }
      ],
      "name": "BatchMetadataUpdate",
      "type": "event"
    },
    {
      "anonymous": false,
      "inputs": [
        {
          "indexed": false,
          "internalType": "uint256",
          "name": "_tokenId",
          "type": "uint256"
        }
      ],
      "name": "MetadataUpdate",
      "type": "event"
    },
    {
      "anonymous": false,
      "inputs": [
        {
          "indexed": true,
          "internalType": "address",
          "name": "previousOwner",
          "type": "address"
        },
        {
          "indexed": true,
          "internalType": "address",
          "name": "newOwner",
          "type": "address"
        }
      ],
      "name": "OwnershipTransferred",
      "type": "event"
    },
    {
      "anonymous": false,
      "inputs": [
        {
          "indexed": true,
          "internalType": "address",
          "name": "from",
          "type": "address"
        },
        {
          "indexed": true,
          "internalType": "address",
          "name": "to",
          "type": "address"
        },
        {
          "indexed": true,
          "internalType": "uint256",
          "name": "tokenId",
          "type": "uint256"
        }
      ],
      "name": "Transfer",
      "type": "event"
    },
    {
      "inputs": [
        {
          "internalType": "address",
          "name": "to",
          "type": "address"
        },
        {
          "internalType": "uint256",
          "name": "tokenId",
          "type": "uint256"
        }
      ],
      "name": "approve",
      "outputs": [],
      "stateMutability": "nonpayable",
      "type": "function"
    },
    {
      "inputs": [
        {
          "internalType": "address",
          "name": "owner",
          "type": "address"
        }
      ],
      "name": "balanceOf",
      "outputs": [
        {
          "internalType": "uint256",
          "name": "",
          "type": "uint256"
        }
      ],
      "stateMutability": "view",
      "type": "function"
    },
    {
      "inputs": [
        {
          "internalType": "uint256",
          "name": "tokenId",
          "type": "uint256"
        }
      ],
      "name": "getApproved",
      "outputs": [
        {
          "internalType": "address",
          "name": "",
          "type": "address"
        }
      ],
      "stateMutability": "view",
      "type": "function"
    },
    {
      "inputs": [
        {
          "internalType": "uint256",
          "name": "tokenId",
          "type": "uint256"
        }
      ],
      "name": "getNFTMataData",
      "outputs": [
        {
          "internalType": "string",
          "name": "",
          "type": "string"
        }
      ],
      "stateMutability": "view",
      "type": "function"
    },
    {
      "inputs": [
        {
          "internalType": "address",
          "name": "owner",
          "type": "address"
        },
        {
          "internalType": "address",
          "name": "operator",
          "type": "address"
        }
      ],
      "name": "isApprovedForAll",
      "outputs": [
        {
          "internalType": "bool",
          "name": "",
          "type": "bool"
        }
      ],
      "stateMutability": "view",
      "type": "function"
    },
    {
      "inputs": [
        {
          "internalType": "address",
          "name": "recipient",
          "type": "address"
        },
        {
          "internalType": "string",
          "name": "tokenURI",
          "type": "string"
        }
      ],
      "name": "mintNFT",
      "outputs": [
        {
          "internalType": "uint256",
          "name": "",
          "type": "uint256"
        }
      ],
      "stateMutability": "nonpayable",
      "type": "function"
    },
    {
      "inputs": [],
      "name": "name",
      "outputs": [
        {
          "internalType": "string",
          "name": "",
          "type": "string"
        }
      ],
      "stateMutability": "view",
      "type": "function"
    },
    {
      "inputs": [],
      "name": "owner",
      "outputs": [
        {
          "internalType": "address",
          "name": "",
          "type": "address"
        }
      ],
      "stateMutability": "view",
      "type": "function"
    },
    {
      "inputs": [
        {
          "internalType": "uint256",
          "name": "tokenId",
          "type": "uint256"
        }
      ],
      "name": "ownerOf",
      "outputs": [
        {
          "internalType": "address",
          "name": "",
          "type": "address"
        }
      ],
      "stateMutability": "view",
      "type": "function"
    },
    {
      "inputs": [],
      "name": "renounceOwnership",
      "outputs": [],
      "stateMutability": "nonpayable",
      "type": "function"
    },
    {
      "inputs": [
        {
          "internalType": "address",
          "name": "from",
          "type": "address"
        },
        {
          "internalType": "address",
          "name": "to",
          "type": "address"
        },
        {
          "internalType": "uint256",
          "name": "tokenId",
          "type": "uint256"
        }
      ],
      "name": "safeTransferFrom",
      "outputs": [],
      "stateMutability": "nonpayable",
      "type": "function"
    },
    {
      "inputs": [
        {
          "internalType": "address",
          "name": "from",
          "type": "address"
        },
        {
          "internalType": "address",
          "name": "to",
          "type": "address"
        },
        {
          "internalType": "uint256",
          "name": "tokenId",
          "type": "uint256"
        },
        {
          "internalType": "bytes",
          "name": "data",
          "type": "bytes"
        }
      ],
      "name": "safeTransferFrom",
      "outputs": [],
      "stateMutability": "nonpayable",
      "type": "function"
    },
    {
      "inputs": [
        {
          "internalType": "address",
          "name": "operator",
          "type": "address"
        },
        {
          "internalType": "bool",
          "name": "approved",
          "type": "bool"
        }
      ],
      "name": "setApprovalForAll",
      "outputs": [],
      "stateMutability": "nonpayable",
      "type": "function"
    },
    {
      "inputs": [
        {
          "internalType": "bytes4",
          "name": "interfaceId",
          "type": "bytes4"
        }
      ],
      "name": "supportsInterface",
      "outputs": [
        {
          "internalType": "bool",
          "name": "",
          "type": "bool"
        }
      ],
      "stateMutability": "view",
      "type": "function"
    },
    {
      "inputs": [],
      "name": "symbol",
      "outputs": [
        {
          "internalType": "string",
          "name": "",
          "type": "string"
        }
      ],
      "stateMutability": "view",
      "type": "function"
    },
    {
      "inputs": [
        {
          "internalType": "uint256",
          "name": "tokenId",
          "type": "uint256"
        }
      ],
      "name": "tokenURI",
      "outputs": [
        {
          "internalType": "string",
          "name": "",
          "type": "string"
        }
      ],
      "stateMutability": "view",
      "type": "function"
    },
    {
      "inputs": [
        {
          "internalType": "address",
          "name": "from",
          "type": "address"
        },
        {
          "internalType": "address",
          "name": "to",
          "type": "address"
        },
        {
          "internalType": "uint256",
          "name": "tokenId",
          "type": "uint256"
        }
      ],
      "name": "transferFrom",
      "outputs": [],
      "stateMutability": "nonpayable",
      "type": "function"
    },
    {
      "inputs": [
        {
          "internalType": "address",
          "name": "newOwner",
          "type": "address"
        }
      ],
      "name": "transferOwnership",
      "outputs": [],
      "stateMutability": "nonpayable",
      "type": "function"
    }
  ],
  "bytecode": "0x60806040523480156200001157600080fd5b506040518060400160405280600381526020017f4e465400000000000000000000000000000000000000000000000000000000008152506040518060400160405280600381526020017f444654000000000000000000000000000000000000000000000000000000000081525081600090816200008f919062000412565b508060019081620000a1919062000412565b505050620000c4620000b8620000ca60201b60201c565b620000d260201b60201c565b620004f9565b600033905090565b6000600760009054906101000a900473ffffffffffffffffffffffffffffffffffffffff16905081600760006101000a81548173ffffffffffffffffffffffffffffffffffffffff021916908373ffffffffffffffffffffffffffffffffffffffff1602179055508173ffffffffffffffffffffffffffffffffffffffff168173ffffffffffffffffffffffffffffffffffffffff167f8be0079c531659141344cd1fd0a4f28419497f9722a3daafe3b4186f6b6457e060405160405180910390a35050565b600081519050919050565b7f4e487b7100000000000000000000000000000000000000000000000000000000600052604160045260246000fd5b7f4e487b7100000000000000000000000000000000000000000000000000000000600052602260045260246000fd5b600060028204905060018216806200021a57607f821691505b60208210810362000230576200022f620001d2565b5b50919050565b60008190508160005260206000209050919050565b60006020601f8301049050919050565b600082821b905092915050565b6000600883026200029a7fffffffffffffffffffffffffffffffffffffffffffffffffffffffffffffffff826200025b565b620002a686836200025b565b95508019841693508086168417925050509392505050565b6000819050919050565b6000819050919050565b6000620002f3620002ed620002e784620002be565b620002c8565b620002be565b9050919050565b6000819050919050565b6200030f83620002d2565b620003276200031e82620002fa565b84845462000268565b825550505050565b600090565b6200033e6200032f565b6200034b81848462000304565b505050565b5b8181101562000373576200036760008262000334565b60018101905062000351565b5050565b601f821115620003c2576200038c8162000236565b62000397846200024b565b81016020851015620003a7578190505b620003bf620003b6856200024b565b83018262000350565b50505b505050565b600082821c905092915050565b6000620003e760001984600802620003c7565b1980831691505092915050565b6000620004028383620003d4565b9150826002028217905092915050565b6200041d8262000198565b67ffffffffffffffff811115620004395762000438620001a3565b5b62000445825462000201565b6200045282828562000377565b600060209050601f8311600181146200048a576000841562000475578287015190505b620004818582620003f4565b865550620004f1565b601f1984166200049a8662000236565b60005b82811015620004c4578489015182556001820191506020850194506020810190506200049d565b86831015620004e45784890151620004e0601f891682620003d4565b8355505b6001600288020188555050505b505050505050565b612e9d80620005096000396000f3fe608060405234801561001057600080fd5b50600436106101165760003560e01c80637453cdb5116100a2578063b88d4fde11610071578063b88d4fde146102df578063c87b56dd146102fb578063e985e9c51461032b578063eacabe141461035b578063f2fde38b1461038b57610116565b80637453cdb5146102575780638da5cb5b1461028757806395d89b41146102a5578063a22cb465146102c357610116565b806323b872dd116100e957806323b872dd146101b557806342842e0e146101d15780636352211e146101ed57806370a082311461021d578063715018a61461024d57610116565b806301ffc9a71461011b57806306fdde031461014b578063081812fc14610169578063095ea7b314610199575b600080fd5b61013560048036038101906101309190611c8e565b6103a7565b6040516101429190611cd6565b60405180910390f35b610153610408565b6040516101609190611d81565b60405180910390f35b610183600480360381019061017e9190611dd9565b61049a565b6040516101909190611e47565b60405180910390f35b6101b360048036038101906101ae9190611e8e565b6104e0565b005b6101cf60048036038101906101ca9190611ece565b6105f7565b005b6101eb60048036038101906101e69190611ece565b610657565b005b61020760048036038101906102029190611dd9565b610677565b6040516102149190611e47565b60405180910390f35b61023760048036038101906102329190611f21565b6106fd565b6040516102449190611f5d565b60405180910390f35b6102556107b4565b005b610271600480360381019061026c9190611dd9565b6107c8565b60405161027e9190611d81565b60405180910390f35b61028f6107da565b60405161029c9190611e47565b60405180910390f35b6102ad610804565b6040516102ba9190611d81565b60405180910390f35b6102dd60048036038101906102d89190611fa4565b610896565b005b6102f960048036038101906102f49190612119565b6108ac565b005b61031560048036038101906103109190611dd9565b61090e565b6040516103229190611d81565b60405180910390f35b6103456004803603810190610340919061219c565b610a20565b6040516103529190611cd6565b60405180910390f35b6103756004803603810190610370919061227d565b610ab4565b6040516103829190611f5d565b60405180910390f35b6103a560048036038101906103a09190611f21565b610af4565b005b6000634906490660e01b7bffffffffffffffffffffffffffffffffffffffffffffffffffffffff1916827bffffffffffffffffffffffffffffffffffffffffffffffffffffffff19161480610401575061040082610b77565b5b9050919050565b60606000805461041790612308565b80601f016020809104026020016040519081016040528092919081815260200182805461044390612308565b80156104905780601f1061046557610100808354040283529160200191610490565b820191906000526020600020905b81548152906001019060200180831161047357829003601f168201915b5050505050905090565b60006104a582610c59565b6004600083815260200190815260200160002060009054906101000a900473ffffffffffffffffffffffffffffffffffffffff169050919050565b60006104eb82610677565b90508073ffffffffffffffffffffffffffffffffffffffff168373ffffffffffffffffffffffffffffffffffffffff160361055b576040517f08c379a0000000000000000000000000000000000000000000000000000000008152600401610552906123ab565b60405180910390fd5b8073ffffffffffffffffffffffffffffffffffffffff1661057a610ca4565b73ffffffffffffffffffffffffffffffffffffffff1614806105a957506105a8816105a3610ca4565b610a20565b5b6105e8576040517f08c379a00000000000000000000000000000000000000000000000000000000081526004016105df9061243d565b60405180910390fd5b6105f28383610cac565b505050565b610608610602610ca4565b82610d65565b610647576040517f08c379a000000000000000000000000000000000000000000000000000000000815260040161063e906124cf565b60405180910390fd5b610652838383610dfa565b505050565b610672838383604051806020016040528060008152506108ac565b505050565b600080610683836110f3565b9050600073ffffffffffffffffffffffffffffffffffffffff168173ffffffffffffffffffffffffffffffffffffffff16036106f4576040517f08c379a00000000000000000000000000000000000000000000000000000000081526004016106eb9061253b565b60405180910390fd5b80915050919050565b60008073ffffffffffffffffffffffffffffffffffffffff168273ffffffffffffffffffffffffffffffffffffffff160361076d576040517f08c379a0000000000000000000000000000000000000000000000000000000008152600401610764906125cd565b60405180910390fd5b600360008373ffffffffffffffffffffffffffffffffffffffff1673ffffffffffffffffffffffffffffffffffffffff168152602001908152602001600020549050919050565b6107bc611130565b6107c660006111ae565b565b60606107d38261090e565b9050919050565b6000600760009054906101000a900473ffffffffffffffffffffffffffffffffffffffff16905090565b60606001805461081390612308565b80601f016020809104026020016040519081016040528092919081815260200182805461083f90612308565b801561088c5780601f106108615761010080835404028352916020019161088c565b820191906000526020600020905b81548152906001019060200180831161086f57829003601f168201915b5050505050905090565b6108a86108a1610ca4565b8383611274565b5050565b6108bd6108b7610ca4565b83610d65565b6108fc576040517f08c379a00000000000000000000000000000000000000000000000000000000081526004016108f3906124cf565b60405180910390fd5b610908848484846113e0565b50505050565b606061091982610c59565b600060066000848152602001908152602001600020805461093990612308565b80601f016020809104026020016040519081016040528092919081815260200182805461096590612308565b80156109b25780601f10610987576101008083540402835291602001916109b2565b820191906000526020600020905b81548152906001019060200180831161099557829003601f168201915b5050505050905060006109c361143c565b905060008151036109d8578192505050610a1b565b600082511115610a0d5780826040516020016109f5929190612629565b60405160208183030381529060405292505050610a1b565b610a1684611453565b925050505b919050565b6000600560008473ffffffffffffffffffffffffffffffffffffffff1673ffffffffffffffffffffffffffffffffffffffff16815260200190815260200160002060008373ffffffffffffffffffffffffffffffffffffffff1673ffffffffffffffffffffffffffffffffffffffff16815260200190815260200160002060009054906101000a900460ff16905092915050565b6000610abe611130565b610ac860086114bb565b6000610ad460086114d1565b9050610ae084826114df565b610aea81846116fc565b8091505092915050565b610afc611130565b600073ffffffffffffffffffffffffffffffffffffffff168173ffffffffffffffffffffffffffffffffffffffff1603610b6b576040517f08c379a0000000000000000000000000000000000000000000000000000000008152600401610b62906126bf565b60405180910390fd5b610b74816111ae565b50565b60007f80ac58cd000000000000000000000000000000000000000000000000000000007bffffffffffffffffffffffffffffffffffffffffffffffffffffffff1916827bffffffffffffffffffffffffffffffffffffffffffffffffffffffff19161480610c4257507f5b5e139f000000000000000000000000000000000000000000000000000000007bffffffffffffffffffffffffffffffffffffffffffffffffffffffff1916827bffffffffffffffffffffffffffffffffffffffffffffffffffffffff1916145b80610c525750610c51826117a0565b5b9050919050565b610c628161180a565b610ca1576040517f08c379a0000000000000000000000000000000000000000000000000000000008152600401610c989061253b565b60405180910390fd5b50565b600033905090565b816004600083815260200190815260200160002060006101000a81548173ffffffffffffffffffffffffffffffffffffffff021916908373ffffffffffffffffffffffffffffffffffffffff160217905550808273ffffffffffffffffffffffffffffffffffffffff16610d1f83610677565b73ffffffffffffffffffffffffffffffffffffffff167f8c5be1e5ebec7d5bd14f71427d1e84f3dd0314c0f7b2291e5b200ac8c7c3b92560405160405180910390a45050565b600080610d7183610677565b90508073ffffffffffffffffffffffffffffffffffffffff168473ffffffffffffffffffffffffffffffffffffffff161480610db35750610db28185610a20565b5b80610df157508373ffffffffffffffffffffffffffffffffffffffff16610dd98461049a565b73ffffffffffffffffffffffffffffffffffffffff16145b91505092915050565b8273ffffffffffffffffffffffffffffffffffffffff16610e1a82610677565b73ffffffffffffffffffffffffffffffffffffffff1614610e70576040517f08c379a0000000000000000000000000000000000000000000000000000000008152600401610e6790612751565b60405180910390fd5b600073ffffffffffffffffffffffffffffffffffffffff168273ffffffffffffffffffffffffffffffffffffffff1603610edf576040517f08c379a0000000000000000000000000000000000000000000000000000000008152600401610ed6906127e3565b60405180910390fd5b610eec838383600161184b565b8273ffffffffffffffffffffffffffffffffffffffff16610f0c82610677565b73ffffffffffffffffffffffffffffffffffffffff1614610f62576040517f08c379a0000000000000000000000000000000000000000000000000000000008152600401610f5990612751565b60405180910390fd5b6004600082815260200190815260200160002060006101000a81549073ffffffffffffffffffffffffffffffffffffffff02191690556001600360008573ffffffffffffffffffffffffffffffffffffffff1673ffffffffffffffffffffffffffffffffffffffff168152602001908152602001600020600082825403925050819055506001600360008473ffffffffffffffffffffffffffffffffffffffff1673ffffffffffffffffffffffffffffffffffffffff16815260200190815260200160002060008282540192505081905550816002600083815260200190815260200160002060006101000a81548173ffffffffffffffffffffffffffffffffffffffff021916908373ffffffffffffffffffffffffffffffffffffffff160217905550808273ffffffffffffffffffffffffffffffffffffffff168473ffffffffffffffffffffffffffffffffffffffff167fddf252ad1be2c89b69c2b068fc378daa952ba7f163c4a11628f55a4df523b3ef60405160405180910390a46110ee8383836001611851565b505050565b60006002600083815260200190815260200160002060009054906101000a900473ffffffffffffffffffffffffffffffffffffffff169050919050565b611138610ca4565b73ffffffffffffffffffffffffffffffffffffffff166111566107da565b73ffffffffffffffffffffffffffffffffffffffff16146111ac576040517f08c379a00000000000000000000000000000000000000000000000000000000081526004016111a39061284f565b60405180910390fd5b565b6000600760009054906101000a900473ffffffffffffffffffffffffffffffffffffffff16905081600760006101000a81548173ffffffffffffffffffffffffffffffffffffffff021916908373ffffffffffffffffffffffffffffffffffffffff1602179055508173ffffffffffffffffffffffffffffffffffffffff168173ffffffffffffffffffffffffffffffffffffffff167f8be0079c531659141344cd1fd0a4f28419497f9722a3daafe3b4186f6b6457e060405160405180910390a35050565b8173ffffffffffffffffffffffffffffffffffffffff168373ffffffffffffffffffffffffffffffffffffffff16036112e2576040517f08c379a00000000000000000000000000000000000000000000000000000000081526004016112d9906128bb565b60405180910390fd5b80600560008573ffffffffffffffffffffffffffffffffffffffff1673ffffffffffffffffffffffffffffffffffffffff16815260200190815260200160002060008473ffffffffffffffffffffffffffffffffffffffff1673ffffffffffffffffffffffffffffffffffffffff16815260200190815260200160002060006101000a81548160ff0219169083151502179055508173ffffffffffffffffffffffffffffffffffffffff168373ffffffffffffffffffffffffffffffffffffffff167f17307eab39ab6107e8899845ad3d59bd9653f200f220920489ca2b5937696c31836040516113d39190611cd6565b60405180910390a3505050565b6113eb848484610dfa565b6113f784848484611857565b611436576040517f08c379a000000000000000000000000000000000000000000000000000000000815260040161142d9061294d565b60405180910390fd5b50505050565b606060405180602001604052806000815250905090565b606061145e82610c59565b600061146861143c565b9050600081511161148857604051806020016040528060008152506114b3565b80611492846119de565b6040516020016114a3929190612629565b6040516020818303038152906040525b915050919050565b6001816000016000828254019250508190555050565b600081600001549050919050565b600073ffffffffffffffffffffffffffffffffffffffff168273ffffffffffffffffffffffffffffffffffffffff160361154e576040517f08c379a0000000000000000000000000000000000000000000000000000000008152600401611545906129b9565b60405180910390fd5b6115578161180a565b15611597576040517f08c379a000000000000000000000000000000000000000000000000000000000815260040161158e90612a25565b60405180910390fd5b6115a560008383600161184b565b6115ae8161180a565b156115ee576040517f08c379a00000000000000000000000000000000000000000000000000000000081526004016115e590612a25565b60405180910390fd5b6001600360008473ffffffffffffffffffffffffffffffffffffffff1673ffffffffffffffffffffffffffffffffffffffff16815260200190815260200160002060008282540192505081905550816002600083815260200190815260200160002060006101000a81548173ffffffffffffffffffffffffffffffffffffffff021916908373ffffffffffffffffffffffffffffffffffffffff160217905550808273ffffffffffffffffffffffffffffffffffffffff16600073ffffffffffffffffffffffffffffffffffffffff167fddf252ad1be2c89b69c2b068fc378daa952ba7f163c4a11628f55a4df523b3ef60405160405180910390a46116f8600083836001611851565b5050565b6117058261180a565b611744576040517f08c379a000000000000000000000000000000000000000000000000000000000815260040161173b90612ab7565b60405180910390fd5b806006600084815260200190815260200160002090816117649190612c83565b507ff8e1a15aba9398e019f0b49df1a4fde98ee17ae345cb5f6b5e2c27f5033e8ce7826040516117949190611f5d565b60405180910390a15050565b60007f01ffc9a7000000000000000000000000000000000000000000000000000000007bffffffffffffffffffffffffffffffffffffffffffffffffffffffff1916827bffffffffffffffffffffffffffffffffffffffffffffffffffffffff1916149050919050565b60008073ffffffffffffffffffffffffffffffffffffffff1661182c836110f3565b73ffffffffffffffffffffffffffffffffffffffff1614159050919050565b50505050565b50505050565b60006118788473ffffffffffffffffffffffffffffffffffffffff16611aac565b156119d1578373ffffffffffffffffffffffffffffffffffffffff1663150b7a026118a1610ca4565b8786866040518563ffffffff1660e01b81526004016118c39493929190612daa565b6020604051808303816000875af19250505080156118ff57506040513d601f19601f820116820180604052508101906118fc9190612e0b565b60015b611981573d806000811461192f576040519150601f19603f3d011682016040523d82523d6000602084013e611934565b606091505b506000815103611979576040517f08c379a00000000000000000000000000000000000000000000000000000000081526004016119709061294d565b60405180910390fd5b805181602001fd5b63150b7a0260e01b7bffffffffffffffffffffffffffffffffffffffffffffffffffffffff1916817bffffffffffffffffffffffffffffffffffffffffffffffffffffffff1916149150506119d6565b600190505b949350505050565b6060600060016119ed84611acf565b01905060008167ffffffffffffffff811115611a0c57611a0b611fee565b5b6040519080825280601f01601f191660200182016040528015611a3e5781602001600182028036833780820191505090505b509050600082602001820190505b600115611aa1578080600190039150507f3031323334353637383961626364656600000000000000000000000000000000600a86061a8153600a8581611a9557611a94612e38565b5b04945060008503611a4c575b819350505050919050565b6000808273ffffffffffffffffffffffffffffffffffffffff163b119050919050565b600080600090507a184f03e93ff9f4daa797ed6e38ed64bf6a1f0100000000000000008310611b2d577a184f03e93ff9f4daa797ed6e38ed64bf6a1f0100000000000000008381611b2357611b22612e38565b5b0492506040810190505b6d04ee2d6d415b85acef81000000008310611b6a576d04ee2d6d415b85acef81000000008381611b6057611b5f612e38565b5b0492506020810190505b662386f26fc100008310611b9957662386f26fc100008381611b8f57611b8e612e38565b5b0492506010810190505b6305f5e1008310611bc2576305f5e1008381611bb857611bb7612e38565b5b0492506008810190505b6127108310611be7576127108381611bdd57611bdc612e38565b5b0492506004810190505b60648310611c0a5760648381611c0057611bff612e38565b5b0492506002810190505b600a8310611c19576001810190505b80915050919050565b6000604051905090565b600080fd5b600080fd5b60007fffffffff0000000000000000000000000000000000000000000000000000000082169050919050565b611c6b81611c36565b8114611c7657600080fd5b50565b600081359050611c8881611c62565b92915050565b600060208284031215611ca457611ca3611c2c565b5b6000611cb284828501611c79565b91505092915050565b60008115159050919050565b611cd081611cbb565b82525050565b6000602082019050611ceb6000830184611cc7565b92915050565b600081519050919050565b600082825260208201905092915050565b60005b83811015611d2b578082015181840152602081019050611d10565b60008484015250505050565b6000601f19601f8301169050919050565b6000611d5382611cf1565b611d5d8185611cfc565b9350611d6d818560208601611d0d565b611d7681611d37565b840191505092915050565b60006020820190508181036000830152611d9b8184611d48565b905092915050565b6000819050919050565b611db681611da3565b8114611dc157600080fd5b50565b600081359050611dd381611dad565b92915050565b600060208284031215611def57611dee611c2c565b5b6000611dfd84828501611dc4565b91505092915050565b600073ffffffffffffffffffffffffffffffffffffffff82169050919050565b6000611e3182611e06565b9050919050565b611e4181611e26565b82525050565b6000602082019050611e5c6000830184611e38565b92915050565b611e6b81611e26565b8114611e7657600080fd5b50565b600081359050611e8881611e62565b92915050565b60008060408385031215611ea557611ea4611c2c565b5b6000611eb385828601611e79565b9250506020611ec485828601611dc4565b9150509250929050565b600080600060608486031215611ee757611ee6611c2c565b5b6000611ef586828701611e79565b9350506020611f0686828701611e79565b9250506040611f1786828701611dc4565b9150509250925092565b600060208284031215611f3757611f36611c2c565b5b6000611f4584828501611e79565b91505092915050565b611f5781611da3565b82525050565b6000602082019050611f726000830184611f4e565b92915050565b611f8181611cbb565b8114611f8c57600080fd5b50565b600081359050611f9e81611f78565b92915050565b60008060408385031215611fbb57611fba611c2c565b5b6000611fc985828601611e79565b9250506020611fda85828601611f8f565b9150509250929050565b600080fd5b600080fd5b7f4e487b7100000000000000000000000000000000000000000000000000000000600052604160045260246000fd5b61202682611d37565b810181811067ffffffffffffffff8211171561204557612044611fee565b5b80604052505050565b6000612058611c22565b9050612064828261201d565b919050565b600067ffffffffffffffff82111561208457612083611fee565b5b61208d82611d37565b9050602081019050919050565b82818337600083830152505050565b60006120bc6120b784612069565b61204e565b9050828152602081018484840111156120d8576120d7611fe9565b5b6120e384828561209a565b509392505050565b600082601f830112612100576120ff611fe4565b5b81356121108482602086016120a9565b91505092915050565b6000806000806080858703121561213357612132611c2c565b5b600061214187828801611e79565b945050602061215287828801611e79565b935050604061216387828801611dc4565b925050606085013567ffffffffffffffff81111561218457612183611c31565b5b612190878288016120eb565b91505092959194509250565b600080604083850312156121b3576121b2611c2c565b5b60006121c185828601611e79565b92505060206121d285828601611e79565b9150509250929050565b600067ffffffffffffffff8211156121f7576121f6611fee565b5b61220082611d37565b9050602081019050919050565b600061222061221b846121dc565b61204e565b90508281526020810184848401111561223c5761223b611fe9565b5b61224784828561209a565b509392505050565b600082601f83011261226457612263611fe4565b5b813561227484826020860161220d565b91505092915050565b6000806040838503121561229457612293611c2c565b5b60006122a285828601611e79565b925050602083013567ffffffffffffffff8111156122c3576122c2611c31565b5b6122cf8582860161224f565b9150509250929050565b7f4e487b7100000000000000000000000000000000000000000000000000000000600052602260045260246000fd5b6000600282049050600182168061232057607f821691505b602082108103612333576123326122d9565b5b50919050565b7f4552433732313a20617070726f76616c20746f2063757272656e74206f776e6560008201527f7200000000000000000000000000000000000000000000000000000000000000602082015250565b6000612395602183611cfc565b91506123a082612339565b604082019050919050565b600060208201905081810360008301526123c481612388565b9050919050565b7f4552433732313a20617070726f76652063616c6c6572206973206e6f7420746f60008201527f6b656e206f776e6572206f7220617070726f76656420666f7220616c6c000000602082015250565b6000612427603d83611cfc565b9150612432826123cb565b604082019050919050565b600060208201905081810360008301526124568161241a565b9050919050565b7f4552433732313a2063616c6c6572206973206e6f7420746f6b656e206f776e6560008201527f72206f7220617070726f76656400000000000000000000000000000000000000602082015250565b60006124b9602d83611cfc565b91506124c48261245d565b604082019050919050565b600060208201905081810360008301526124e8816124ac565b9050919050565b7f4552433732313a20696e76616c696420746f6b656e2049440000000000000000600082015250565b6000612525601883611cfc565b9150612530826124ef565b602082019050919050565b6000602082019050818103600083015261255481612518565b9050919050565b7f4552433732313a2061646472657373207a65726f206973206e6f74206120766160008201527f6c6964206f776e65720000000000000000000000000000000000000000000000602082015250565b60006125b7602983611cfc565b91506125c28261255b565b604082019050919050565b600060208201905081810360008301526125e6816125aa565b9050919050565b600081905092915050565b600061260382611cf1565b61260d81856125ed565b935061261d818560208601611d0d565b80840191505092915050565b600061263582856125f8565b915061264182846125f8565b91508190509392505050565b7f4f776e61626c653a206e6577206f776e657220697320746865207a65726f206160008201527f6464726573730000000000000000000000000000000000000000000000000000602082015250565b60006126a9602683611cfc565b91506126b48261264d565b604082019050919050565b600060208201905081810360008301526126d88161269c565b9050919050565b7f4552433732313a207472616e736665722066726f6d20696e636f72726563742060008201527f6f776e6572000000000000000000000000000000000000000000000000000000602082015250565b600061273b602583611cfc565b9150612746826126df565b604082019050919050565b6000602082019050818103600083015261276a8161272e565b9050919050565b7f4552433732313a207472616e7366657220746f20746865207a65726f2061646460008201527f7265737300000000000000000000000000000000000000000000000000000000602082015250565b60006127cd602483611cfc565b91506127d882612771565b604082019050919050565b600060208201905081810360008301526127fc816127c0565b9050919050565b7f4f776e61626c653a2063616c6c6572206973206e6f7420746865206f776e6572600082015250565b6000612839602083611cfc565b915061284482612803565b602082019050919050565b600060208201905081810360008301526128688161282c565b9050919050565b7f4552433732313a20617070726f766520746f2063616c6c657200000000000000600082015250565b60006128a5601983611cfc565b91506128b08261286f565b602082019050919050565b600060208201905081810360008301526128d481612898565b9050919050565b7f4552433732313a207472616e7366657220746f206e6f6e20455243373231526560008201527f63656976657220696d706c656d656e7465720000000000000000000000000000602082015250565b6000612937603283611cfc565b9150612942826128db565b604082019050919050565b600060208201905081810360008301526129668161292a565b9050919050565b7f4552433732313a206d696e7420746f20746865207a65726f2061646472657373600082015250565b60006129a3602083611cfc565b91506129ae8261296d565b602082019050919050565b600060208201905081810360008301526129d281612996565b9050919050565b7f4552433732313a20746f6b656e20616c7265616479206d696e74656400000000600082015250565b6000612a0f601c83611cfc565b9150612a1a826129d9565b602082019050919050565b60006020820190508181036000830152612a3e81612a02565b9050919050565b7f45524337323155524953746f726167653a2055524920736574206f66206e6f6e60008201527f6578697374656e7420746f6b656e000000000000000000000000000000000000602082015250565b6000612aa1602e83611cfc565b9150612aac82612a45565b604082019050919050565b60006020820190508181036000830152612ad081612a94565b9050919050565b60008190508160005260206000209050919050565b60006020601f8301049050919050565b600082821b905092915050565b600060088302612b397fffffffffffffffffffffffffffffffffffffffffffffffffffffffffffffffff82612afc565b612b438683612afc565b95508019841693508086168417925050509392505050565b6000819050919050565b6000612b80612b7b612b7684611da3565b612b5b565b611da3565b9050919050565b6000819050919050565b612b9a83612b65565b612bae612ba682612b87565b848454612b09565b825550505050565b600090565b612bc3612bb6565b612bce818484612b91565b505050565b5b81811015612bf257612be7600082612bbb565b600181019050612bd4565b5050565b601f821115612c3757612c0881612ad7565b612c1184612aec565b81016020851015612c20578190505b612c34612c2c85612aec565b830182612bd3565b50505b505050565b600082821c905092915050565b6000612c5a60001984600802612c3c565b1980831691505092915050565b6000612c738383612c49565b9150826002028217905092915050565b612c8c82611cf1565b67ffffffffffffffff811115612ca557612ca4611fee565b5b612caf8254612308565b612cba828285612bf6565b600060209050601f831160018114612ced5760008415612cdb578287015190505b612ce58582612c67565b865550612d4d565b601f198416612cfb86612ad7565b60005b82811015612d2357848901518255600182019150602085019450602081019050612cfe565b86831015612d405784890151612d3c601f891682612c49565b8355505b6001600288020188555050505b505050505050565b600081519050919050565b600082825260208201905092915050565b6000612d7c82612d55565b612d868185612d60565b9350612d96818560208601611d0d565b612d9f81611d37565b840191505092915050565b6000608082019050612dbf6000830187611e38565b612dcc6020830186611e38565b612dd96040830185611f4e565b8181036060830152612deb8184612d71565b905095945050505050565b600081519050612e0581611c62565b92915050565b600060208284031215612e2157612e20611c2c565b5b6000612e2f84828501612df6565b91505092915050565b7f4e487b7100000000000000000000000000000000000000000000000000000000600052601260045260246000fdfea2646970667358221220a2fc44ebf2ab65c9b5d7ddd19fa1c53a94e65793591b38bdaa5d738194b9b31a64736f6c63430008150033",
  "linkReferences": {},
  "deployedLinkReferences": {}
}